{
  "contractName": "MockKitty",
  "abi": [
    {
      "constant": true,
      "inputs": [
        {
          "name": "",
          "type": "uint256"
        }
      ],
      "name": "kitties",
      "outputs": [
        {
          "name": "genes",
          "type": "uint256"
        }
      ],
      "payable": false,
      "stateMutability": "view",
      "type": "function"
    },
    {
      "constant": false,
      "inputs": [
        {
          "name": "kittyId",
          "type": "uint256"
        },
        {
          "name": "gene",
          "type": "uint256"
        }
      ],
      "name": "setGene",
      "outputs": [],
      "payable": false,
      "stateMutability": "nonpayable",
      "type": "function"
    },
    {
      "constant": true,
      "inputs": [
        {
          "name": "_id",
          "type": "uint256"
        }
      ],
      "name": "getKitty",
      "outputs": [
        {
          "name": "isGestating",
          "type": "bool"
        },
        {
          "name": "isReady",
          "type": "bool"
        },
        {
          "name": "cooldownIndex",
          "type": "uint256"
        },
        {
          "name": "nextActionAt",
          "type": "uint256"
        },
        {
          "name": "siringWithId",
          "type": "uint256"
        },
        {
          "name": "birthTime",
          "type": "uint256"
        },
        {
          "name": "matronId",
          "type": "uint256"
        },
        {
          "name": "sireId",
          "type": "uint256"
        },
        {
          "name": "generation",
          "type": "uint256"
        },
        {
          "name": "genes",
          "type": "uint256"
        }
      ],
      "payable": false,
      "stateMutability": "view",
      "type": "function"
    }
  ],
  "bytecode": "0x608060405234801561001057600080fd5b50610261806100206000396000f300608060405260043610610057576000357c0100000000000000000000000000000000000000000000000000000000900463ffffffff1680638cc51eda1461005c578063df9d968d1461009d578063e98b7f4d146100d4575b600080fd5b34801561006857600080fd5b506100876004803603810190808035906020019092919050505061015c565b6040518082815260200191505060405180910390f35b3480156100a957600080fd5b506100d2600480360381019080803590602001909291908035906020019092919050505061017a565b005b3480156100e057600080fd5b506100ff60048036038101908080359060200190929190505050610198565b604051808b1515151581526020018a1515151581526020018981526020018881526020018781526020018681526020018581526020018481526020018381526020018281526020019a505050505050505050505060405180910390f35b60006020528060005260406000206000915090508060000154905081565b80600080848152602001908152602001600020600001819055505050565b6000806000806000806000806000806101af610221565b6000808d815260200190815260200160002060206040519081016040529081600082015481525050905060006001600080600042600080600089600001518797508696508595508393508292508191509a509a509a509a509a509a509a509a509a509a50509193959799509193959799565b6020604051908101604052806000815250905600a165627a7a723058203bf780aa734154375fa31b4fef472d2f49ca5641764f47e303ef72b19888d7860029",
  "source": "// SPDX-License-Identifier: MIT\npragma solidity ^0.4.25;\n\n/**\n * Minimal mock of CryptoKitties used by ZombieFeeding: only getKitty(...) matters.\n * We store genes per kittyId and return them in the last tuple position.\n */\ncontract MockKitty {\n    struct K { uint256 genes; }\n    mapping(uint256 => K) public kitties;\n\n    // For demo: set kitty DNA (callable by anyone in local demo)\n    function setGene(uint256 kittyId, uint256 gene) external {\n        kitties[kittyId].genes = gene;\n    }\n\n    // CK interface shape the CryptoZombies tutorial calls.\n    function getKitty(uint256 _id)\n        external\n        view\n        returns (\n            bool isGestating,\n            bool isReady,\n            uint256 cooldownIndex,\n            uint256 nextActionAt,\n            uint256 siringWithId,\n            uint256 birthTime,\n            uint256 matronId,\n            uint256 sireId,\n            uint256 generation,\n            uint256 genes\n        )\n    {\n        K memory k = kitties[_id];\n        return (\n            false,             // isGestating\n            true,              // isReady\n            0,                 // cooldownIndex\n            0,                 // nextActionAt\n            0,                 // siringWithId\n            block.timestamp,   // birthTime\n            0,                 // matronId\n            0,                 // sireId\n            0,                 // generation\n            k.genes            // genes (the only value ZombieFeeding uses)\n        );\n    }\n}\n",
  "sourcePath": "/Users/devpatel/Desktop/Cryptozombie Mid sem/contracts/MockKitty.sol",
  "compiler": {
    "name": "solc",
    "version": "0.4.25+commit.59dbf8f1.Emscripten.clang"
  },
  "schemaVersion": "3.4.16",
  "updatedAt": "2025-10-18T22:37:31.768Z",
  "networkType": "ethereum",
  "devdoc": {
    "methods": {}
  },
  "userdoc": {
    "methods": {}
  }
}